:03000000020800F3
:0C080000787FE4F6D8FD75815F020847A0
:10088C00205010007E818181817E0000004141FF5B
:10089C00010100006183858991610000668189896D
:1008AC00897E00182848887F0808000000F989898B
:1008BC00898F000000FF8989898F0000008080806B
:1008CC0080FF000000FF898989FF000000F19191F1
:0D08DC0091FF0008087FBFDFEFF7FBFDFE76
:0B094700EF1FAC0670011E4C70F62282
:10092200E4FEEFC4131313540124FF92B4EF25E045
:10093200FFC2B6D2B60EBE08E9C2B57F017E001272
:040942000947D2B5DA
:01094600228E
:1008EA00E4F580E4FDE4FAE4FB74082BF8E6F5800D
:1008FA00ED75F008A424102BF8E6FF1209227F6494
:10090A007E00120947E4FF1209220BBB08DB0ABA70
:08091A0032D50DBD0ACF80CBE0
:10080C000208EAE493A3F8E493A34003F68001F210
:10081C0008DFF48029E493A3F85407240CC8C333ED
:10082C00C4540F4420C8834004F456800146F6DFBC
:10083C00E4800B010204081020408090088CE47EB8
:10084C00019360BCA3FF543F30E509541FFEE493B1
:10085C00A360010ECF54C025E060A840B8E493A378
:10086C00FAE493A3F8E493A3C8C582C8CAC583CAA3
:10087C00F0A3C8C582C8CAC583CADFE9DEE780BE5B
:0108E900000E
:00000001FF
